:100000000C9435000C945D000C945D000C94140C61
:100010000C94EB0B0C94C20B0C945D000C945D00E3
:100020000C945D000C945D000C945D000C945D00DC
:100030000C945D000C945D000C945D000C945D00CC
:100040000C94200B0C945D000C94900B0C946A0B98
:100050000C945D000C945D000C945D000C945D00AC
:100060000C945D000C945D003D0C11241FBECFEF7D
:10007000D8E0DEBFCDBF14E0A0E0B1E0E2E8FAE2F4
:1000800002C005900D92A236B107D9F725E0A2E68D
:10009000B4E001C01D92A03EB207E1F710E0C5E355
:1000A000D0E004C02197FE010E94F60EC433D107B0
:1000B000C9F70E94780C0C943F150C9400008091B5
:1000C000220590912305009739F0DC01ED91FC9118
:1000D0000084F185E02D0994089580912205909186
:1000E0002305009739F0DC01ED91FC910284F38542
:1000F000E02D0994089580912205909123050097A1
:1001000039F0DC01ED91FC910484F585E02D099432
:1001100008958091220590912305009739F0DC0124
:10012000ED91FC910684F785E02D09940895AF9236
:10013000BF92CF92DF92EF92FF920F931F93CF93D4
:10014000DF936C017B018B01040F151FEB015E0136
:10015000AE18BF08C017D10759F06991D601ED91CB
:10016000FC910190F081E02DC6010995892B79F76A
:10017000C501DF91CF911F910F91FF90EF90DF901C
:10018000CF90BF90AF900895FC01538D448D252FE3
:1001900030E0842F90E0821B930B541710F0CF9621
:1001A000089501970895FC01918D828D981761F053
:1001B000A28DAE0FBF2FB11D5D968C91928D9F5F6A
:1001C0009F73928F90E008958FEF9FEF0895FC0149
:1001D000918D828D981731F0828DE80FF11D858DFC
:1001E00090E008958FEF9FEF0895FC01918D228D8F
:1001F000892F90E0805C9F4F821B91098F73992714
:10020000089583E395E00E94F50021E0892B09F42D
:1002100020E0822F089580E090E0892B29F00E9451
:10022000010181110C9400000895FC01A48DA80F18
:10023000B92FB11DA35ABF4F2C91848D90E0019628
:100240008F739927848FA689B7892C93A089B18948
:100250008C91837080648C93938D848D981306C0E9
:100260000288F389E02D80818F7D80830895EF924D
:10027000FF920F931F93CF93DF93EC0181E0888F60
:100280009B8D8C8D98131AC0E889F989808185FF30
:1002900015C09FB7F894EE89FF896083E889F989D2
:1002A00080818370806480839FBF81E090E0DF91D4
:1002B000CF911F910F91FF90EF900895F62E0B8D27
:1002C00010E00F5F1F4F0F731127E02E8C8D8E11E2
:1002D0000CC00FB607FCFACFE889F989808185FF49
:1002E000F5CFCE010E941501F1CFEB8DEC0FFD2F64
:1002F000F11DE35AFF4FF0829FB7F8940B8FEA8904
:10030000FB8980818062CFCFCF93DF93EC01888D12
:100310008823B9F0AA89BB89E889F9898C9185FD80
:1003200003C0808186FD0DC00FB607FCF7CF8C910E
:1003300085FFF2CF808185FFEDCFCE010E941501B0
:10034000E9CFDF91CF910895DC01ED91FC91068416
:10035000F785E02D099581E00895CF93DF93FC01A7
:10036000C289D389E881F9810484F585E02D41E0D3
:1003700070E060E0CE010995811102C090E015C0E7
:10038000E881F9810084F185E02DCE01099588236B
:10039000A9F3E881F9810088F189E02D70E060E03F
:1003A000CE01099591E0882349F3892FDF91CF9100
:1003B00008951F93CF93DF93162FFC01C289D38931
:1003C000E881F9810484F585E02D41E070E060E08A
:1003D000CE0109958823B1F0E881F9810084F18587
:1003E000E02DCE010995882369F0E881F981068422
:1003F000F785E02D412F70E060E0CE01DF91CF91D5
:100400001F910994DF91CF911F910895CF93DF93AE
:10041000EC018C859D85DC01ED91FC910084F185DA
:10042000E02D0995882349F0E881F9810488F58950
:10043000E02DCE01DF91CF910994DF91CF91089506
:10044000CF93DF93EC018A859B85DC01ED91FC91D4
:100450000084F185E02D09958823B1F08A859B857C
:10046000DC01ED91FC910680F781E02D0995882350
:1004700059F08A819B81DC01ED91FC910484F58522
:10048000E02DDF91CF910994DF91CF910895CF9323
:10049000DF93EC0188859985DC01ED91FC91008466
:1004A000F185E02D09958823F9F088859985DC018F
:1004B000ED91FC910088F189E02D09958C819D8159
:1004C000DC01ED91FC910088F189E02D61E0099556
:1004D0008E819F81DC01ED91FC910088F189E02DF6
:1004E00061E0DF91CF910994DF91CF910895EF9270
:1004F000FF920F931F93CF93DF93EC01888599852B
:10050000DC01ED91FC910680F781E02D09958111C8
:100510008CC08C819D81DC01ED91FC910084F18582
:10052000E02D0995082F8E819F81DC01ED91FC91D2
:100530000084F185E02D0995182F011103C088234F
:1005400009F473C08C819D81DC01ED91FC910088E0
:10055000F189E02D60E009958E819F81DC01ED91AC
:10056000FC910088F189E02D60E0099588859985E6
:10057000DC01ED91FC910684F785E02D09950023BF
:1005800061F18A859B85DC01ED91FC910288F389FC
:10059000E02D0995E881F981E088F1888A859B85BD
:1005A000DC01ED91FC910680F781E02D0995682F23
:1005B000CE01F70109958A859B85DC01ED91FC91BF
:1005C0000680F781E02D09952E853F858823E9F087
:1005D00069EE71E0C9010E94A401112331F1E881A3
:1005E000F9810488F589E02DCE0109958C859D85DA
:1005F000DC01ED91FC910488F589E02DDF91CF912C
:100600001F910F91FF90EF90099460E072E0C90193
:100610000E94A4018A819B81DC01ED91FC910284FE
:10062000F385E02D60E00995D8CFDF91CF911F9140
:100630000F91FF90EF9008950F931F93CF93DF9347
:10064000EC018B01E881F9810480F581E02D0995A9
:10065000AE85BF85811132C0ED91FC911197068066
:10066000F781E02DCD010995882391F18E859F8535
:10067000DC01ED91FC910084F185E02D0995182FA6
:100680008E859F85DC01ED91FC910284F385E02D40
:1006900061E0099568E172E08E859F850E94A40162
:1006A0008E859F85DC01ED91FC910284F385E02D20
:1006B000612FDF91CF911F910F9109946AE472E04D
:1006C000CD010E94A401F8018081811101C0FFCFFA
:1006D000DF91CF911F910F9108951F93CF93DF93D7
:1006E000EC016FE572E08E859F850E94A4018A81EE
:1006F0009B81DC01ED91FC910480F581E02D099551
:10070000182F811106C062E872E08E859F850E94D5
:10071000A4018C819D81DC01ED91FC910480F58127
:10072000E02D0995811107C06FE972E08E859F85E4
:100730000E94A40110E08E819F81DC01ED91FC916B
:100740000480F581E02D0995811107C065EC72E008
:100750008E859F850E94A40110E088859985DC0123
:10076000ED91FC910480F581E02D0995811107C080
:1007700069EE72E08E859F850E94A40110E08A8553
:100780009B85DC01ED91FC910480F581E02D0995BC
:10079000811107C060E173E08E859F850E94A401EE
:1007A00010E08C859D85DC01ED91FC910480F58144
:1007B000E02D0995811107C065E373E08E859F8563
:1007C0000E94A40110E08E859F85DC01ED91FC91D3
:1007D0000680F781E02D0995811107C068E573E077
:1007E0008E859F850E94A40110E088899989DC018B
:1007F000ED91FC910480F581E02D0995811107C0F0
:1008000068E773E08E859F850E94A40110E08A89C5
:100810009B89DC01ED91FC910680F781E02D099523
:10082000811107C06AE973E08E859F850E94A4014B
:1008300010E08C899D89DC01ED91FC910480F581AB
:10084000E02D09952E853F8581110DC06AEB73E07F
:10085000C9010E94A4016FE074E08E859F850E940B
:10086000A40110E007C01123B1F36EED73E0C901DC
:100870000E94A401812FDF91CF911F910895CF9302
:10088000DF93EC0187EA91E0998388838A819B81D9
:10089000DC01ED91FC910284F385E02D60E0099587
:1008A0008C819D81DC01ED91FC910684F785E02D22
:1008B00060E009958E819F81DC01ED91FC910684B9
:1008C000F785E02D60E0099588859985DC01ED913B
:1008D000FC910088F189E02D09958A859B85DC01D2
:1008E000ED91FC910088F189E02D09958C859D851D
:1008F000DC01ED91FC910088F189E02D09958E8550
:100900009F85DC01ED91FC910284F385E02D60E090
:10091000099588899989DC01ED91FC910084F18524
:10092000E02D60E009958A899B89DC01ED91FC91BD
:100930000284F385E02D60E009958A859B85DC01C2
:10094000ED91FC910088F189E02DDF91CF91099420
:100950000C943F0408950895F894A89584B7877F70
:1009600084BF78940895FC01611581E0780741F017
:1009700008F56032710521F0A8F460317105C1F409
:1009800094E0611581E07807A1F108F040C091E0A2
:100990006032710571F128F590E06031710549F11F
:1009A0009FEF27C06034710559F36038710541F33A
:1009B00080E00895611588E0780711F348F4611527
:1009C00082E07807E9F2611584E0780789F7D8CFEB
:1009D000611580E17807A1F2611580E2780741F79F
:1009E000CFCF92E06034710521F093E0603871055B
:1009F000B9F6F894209160002861209360009093EC
:100A00006000789478947383628381E0089597E01E
:100A1000611588E0780769F358F495E0611582E084
:100A2000780739F396E0611584E0780711F3B8CFC1
:100A300090E2611580E17807E1F291E2611580E2D0
:100A40007807B9F2ADCFFC018281938108951F939D
:100A5000CF93DF93EC01162F0E94AC04F8948091A1
:100A60006000806180936000809160008860809366
:100A7000600080916000112349F0886080936000DD
:100A800078941C83DF91CF911F910895877FF6CFD3
:100A9000FC018481089581E00895DC011296ED91B6
:100AA000FC9113970480F581E02D108218961C921A
:100AB00008950F931F93CF93DF93FC018481958159
:100AC000A681B781892B8A2B8B2BD1F078948281D8
:100AD0009381DC011496CD91DC91159718811696BF
:100AE0000C9121E030E040E050E060E070E080E018
:100AF00090E00E94B40EA12FA22BA88381E08087F2
:100B0000DF91CF911F910F910895DC011296ED9125
:100B1000FC9110821182128213820C945905FC01FF
:100B2000208521110C944D050C945905CF92DF922C
:100B3000EF92FF92CF93DF93EC01411551056105D0
:100B40007105D9F40E944D0560E070E0CB016C8323
:100B50007D838E839F83DF91CF91FF90EF90DF9015
:100B6000CF90089520E030E040E05FE3C701B60198
:100B70000E94FD0E0E94E20FEACFCB01BA010E9453
:100B800011102FE632E143E05EE30E94690F6B0132
:100B90007C0120E030E0A9010E949F1087FFE2CF96
:100BA00020E030E040E05FE3C701B6010E94FC0EA8
:100BB000E1CFCF92DF92EF92FF92FC0164817581C9
:100BC000868197810E9411102FE632E143E05EE3B7
:100BD0000E94A4106B017C0120E030E0A9010E947A
:100BE0009F1020E030E040E05FE387FD0BC0C701CD
:100BF000B6010E94FD0E0E94E20FFF90EF90DF9081
:100C0000CF900895C701B6010E94FC0EF4CF0F9358
:100C10001F93FC018085882389F0A281B3810D9107
:100C20001D912D913C9181E04481558166817781B0
:100C3000041715072607370708F480E01F910F9166
:100C40000895FC018085089521E0FC018281938153
:100C5000892B09F420E0822F089508950895CF93F9
:100C6000DF93EC018A819B81DC01ED91FC91068888
:100C7000F789E02D6C810995882359F08A819B8141
:100C8000DC01ED91FC910088F189E02DDF91CF919D
:100C9000099480E0DF91CF910895CF92DF92EF9297
:100CA000FF92CF93DF93EC010E942F0670E060E08B
:100CB000882349F18A819B81DC01ED91FC910684B6
:100CC000F785E02D6C81099520E030E048EC52E496
:100CD0000E94A41020E030E048E452E40E94FC0EA0
:100CE0006B017C0120E030E0A9010E949F1020E010
:100CF00030E040E05FE387FD0EC0C701B6010E940F
:100D0000FD0E0E94DB0FCB01DF91CF91FF90EF90A2
:100D1000DF90CF900895C701B6010E94FC0EF1CF7D
:100D200008950895FC018281882359F0FB01819187
:100D3000882339F09091C00095FFFCCF8093C600C6
:100D4000F6CF0895FC0162830895FC018281089525
:100D500060E875E280E090E008950F93CF93DF9311
:100D6000FC01A281B381109741F1662351F178947F
:100D7000A0916800C281D381088521E030E040E085
:100D800050E060E070E080E090E00E94B40EA22BA2
:100D9000A0936800A281B3811696CD91DC91A881C1
:100DA000078121E030E040E050E060E070E080E06A
:100DB00090E00E94B40EA22BA883DF91CF910F91F7
:100DC000089516960D90BC91A02DCC91078121E03D
:100DD00030E040E050E060E070E080E090E00E94B1
:100DE000B40E20952C232C93E8CF0F93CF93DF9351
:100DF000A62FEC01EA81FB81309791F0008521E07C
:100E000030E040E050E060E070E080E090E00E9480
:100E1000B40E80916800AA2339F0282B2093680033
:100E2000DF91CF910F91089520952823F7CF0F934D
:100E3000CF93DF93DC011296ED91FC9113973097DD
:100E4000B1F014968C911497823089F4C481D581C5
:100E5000E88117960C9121E030E040E050E060E03E
:100E600070E080E090E00E94B40EE22BE883DF9116
:100E7000CF910F9108950F93CF93DC01C62F129657
:100E8000ED91FC9113973097C9F014968C911497BB
:100E90008230A1F40280F381E02D17960C9121E0BD
:100EA00030E040E050E060E070E080E090E00E94E0
:100EB000B40E8081CC2329F0282B2083CF910F9171
:100EC000089520952823F9CF0F93DC011296ED9118
:100ED000FC91139780E0309789F00480F581E02D34
:100EE000208117960C9130E040E050E060E070E027
:100EF00080E090E00E94CF0E822F81700F910895C4
:100F0000FC018481089521E0FC0182819381892B79
:100F100009F420E0822F08954F925F926F927F92A2
:100F20008F929F92AF92BF92CF92DF92EF92FF92F9
:100F30000F93CF93DF93EC018BE291E09983888349
:100F40008A819B81892B09F451C060E0CE010E9407
:100F5000AD06EA81FB810190F081E02DA0810F8137
:100F600021E030E040E050E060E070E080E090E0C0
:100F70000E94B40E20952A232083EA81FB810280FF
:100F8000F381E02DA0810F8121E030E040E050E0CE
:100F900060E070E080E090E00E94B40E20952A238B
:100FA00020834090620450906304609064047090C9
:100FB00065040E8121E030E040E050E060E070E048
:100FC00080E090E00E94B40E49015A018094909410
:100FD000A094B09484209520A620B720809262042B
:100FE00090926304A0926404B0926504DF91CF9163
:100FF0000F91FF90EF90DF90CF90BF90AF909F90B8
:101000008F907F906F905F904F9008950C948C0715
:101010003F924F925F926F927F928F929F92AF9288
:10102000BF92CF92DF92EF92FF920F931F93CF93D5
:10103000DF93CDB7DEB72A970FB6F894DEBF0FBEA9
:10104000CDBF9A878987D62E142F79018BE291E044
:10105000E985FA8591838083138212824483F7E0C5
:1010600052E0352EF61708F4312CE985FA853582E1
:10107000D682F1E03F1639F082E048EFC42E3812F4
:1010800004C0CD2C03C032EFC32ECD0CE985FA8508
:10109000C782409062045090630460906404709032
:1010A00065049201A30160E070E080E090E00D2D06
:1010B0000E94CF0E217030E040E050E060E070E030
:1010C00080E090E0A0E00E94EA0E09F05BC0E32D12
:1010D000F0E0EE0FFF1FEF5DFE4F0190F081E02D7D
:1010E000A985BA851396FC93EE931297309709F46D
:1010F00049C08090620490906304A0906404B09012
:10110000650421E00E94B40E29833A834B835C83FB
:101110006D837E838F83988789819A81AB81BC811F
:10112000882A992AAA2ABB2A809262049092630490
:10113000A0926404B092650421E030E040E050E009
:1011400060E070E080E090E00C2D0E94B40E123060
:1011500089F10280F381E02D8081282B2083E11426
:10116000F10481F095B1A985BA851296ED91FC91B3
:101170000280F381E02D8081981320C0F092D70582
:10118000E092D6052A960FB6F894DEBF0FBECDBF0B
:10119000DF91CF911F910F91FF90EF90DF90CF9053
:1011A000BF90AF909F908F907F906F905F904F9087
:1011B0003F9008950190F081E02DCECF98B18081CD
:1011C000981305C0F092D905E092D805DBCF9BB10A
:1011D00080819813D7CFF092DB05E092DA05D2CF69
:1011E0000895F999FECF72BD61BDF89A80B5089552
:1011F000F999FECF72BD61BD40BDF894FA9AF99A93
:1012000078940895460F572F511D81E041155440A1
:1012100008F080E0089580E094E008950895663035
:1012200030F06E5081E0663018F080E0089581E083
:101230000895CF93C62FFC012281222391F10E94B1
:101240000F09882371F1C63008F0CE50C064C093F6
:101250007C0080917A00806880937A0080917A0087
:10126000806480937A0080917A00816080937A0014
:1012700080917A00826080937A0080917A00846005
:1012800080937A0080917A0084FFFCCF80917A006D
:10129000806180937A008091780090917900CF915D
:1012A000089590E080E0FBCF0E941909BC0190E016
:1012B00080E00E94111020E030EC4FE754E40E94DF
:1012C000690F08950E94540920E030E040EA50E49C
:1012D0000E94A410089560E070E080EA90E4089510
:1012E0008FEF93E008958AE008958F929F92AF92D6
:1012F000BF92CF92DF92EF92FF921F93CF93DF9333
:101300007C014A015B01690181EC91E0F701918365
:10131000808380912D0590912E05892B09F456C06C
:1013200080912F0590913005892B09F469C0809137
:10133000310590913205892B09F464C0D0E0C0E0FA
:10134000F701D383C283C501B4010E9411102FE6B7
:1013500032E143E05EE30E94690F4B015C0120E053
:1013600030E0A9010E949F1020E030E040E05FE300
:1013700087FD61C0C501B4010E94FD0E0E94E20F0D
:10138000F70164837583868397831086209791F095
:101390002F8130E0C901880F991FFC01E35DFA4FEE
:1013A000F182E0822330310528F480539A4FFC010A
:1013B000D182C082DF91CF911F91FF90EF90DF909B
:1013C000CF90BF90AF909F908F90089510E088E0ED
:1013D00090E00E943511EC01892B09F4AFCF113058
:1013E00099F0123001F18EE690E09D838C831E828D
:1013F00082E085BD188219821A821B821F83A0CFCA
:1014000011E0E5CF12E0E3CF8FE690E09D838C837F
:101410001E838AE08093810080E091E090938900B0
:1014200080938800E7CF80E790E09D838C831E82C5
:101430001093B100DFCFC501B4010E94FC0E9ECF16
:1014400021EC31E0FC0131832083A281B38110972C
:1014500089F117962C91179730E02330310538F435
:10146000F901EE0FFF1FE053FA4F11821082220F95
:10147000331FF901E35DFA4F118210821496ED914A
:10148000FC911597108217968C911797813041F037
:1014900028F0823061F0CD010C94D11115BCFBCF46
:1014A000109281001092890010928800F4CF10925F
:1014B000B100F1CF08950C94200AEF92FF920F93A0
:1014C0001F93CF93DF93CDB7DEB7C556D1090FB6C3
:1014D000F894DEBF0FBECDBF8C01DC0154968D9118
:1014E0009C91DC01ED91FC910680F781E02D09953E
:1014F000F801E684F78425E68E010F5F1F4FD801BF
:10150000E22F1D92EA95E9F79F938F9389E494E087
:101510009F938F931F922F931F930F930E945A12A2
:10152000D701ED91FC910684F785E02DB801C70144
:1015300009950FB6F894DEBF0FBECDBFCB59DF4F74
:101540000FB6F894DEBF0FBECDBFDF91CF911F91D4
:101550000F91FF90EF9008958F929F92AF92BF925C
:10156000CF92DF92EF92FF920F93CF93DF93EB0135
:101570007A015901209709F460C04115510509F419
:101580005CC0232BD9F4FB01C40FD51FCE17DF0796
:1015900009F446C02091C00030E040E050E060E037
:1015A00070E080E090E007E00E94CF0EA0E00E9493
:1015B000EA0E81F38091C6008193E8CFD12CC12C33
:1015C000F0E0E0E04E018E0E9F1EEE15FF0528F5BF
:1015D0002091C00030E040E050E060E070E080E04A
:1015E00090E007E00E94CF0EA0E00E94EA0E71F4A6
:1015F0008FE99FE00197F1F700C000009FEFC91A43
:10160000D90AAC14BD04F1F67F010AC08091C6006E
:101610003196D4018D934D01D8CFEE15FF0541F7DA
:10162000C701DF91CF910F91FF90EF90DF90CF90A6
:10163000BF90AF909F908F9008958FEF9FEFF1CF65
:101640001F920F920FB60F9211242F933F938F93F7
:101650009F93AF93BF938091290590912A05A09104
:101660002B05B0912C053091280523E0230F2D3751
:1016700058F50196A11DB11D2093280580932905D9
:1016800090932A05A0932B05B0932C0580912405F7
:1016900090912505A0912605B09127050196A11DE1
:1016A000B11D8093240590932505A0932605B09342
:1016B0002705BF91AF919F918F913F912F910F90EF
:1016C0000FBE0F901F90189526E8230F0296A11DBC
:1016D000B11DD2CF1F920F920FB60F9211242F93EC
:1016E0003F934F935F936F937F938F939F93AF93AA
:1016F000BF93EF93FF9383E395E00E941501FF9161
:10170000EF91BF91AF919F918F917F916F915F9179
:101710004F913F912F910F900FBE0F901F901895F2
:101720001F920F920FB60F9211242F938F939F93B6
:10173000EF93FF93E0914305F09144058081E091A0
:101740004905F0914A0582FD1BC0908180914C05AE
:101750008F5F8F7320914D05821741F0E0914C050A
:10176000F0E0ED5CFA4F958F80934C05FF91EF917F
:101770009F918F912F910F900FBE0F901F901895F2
:101780008081F4CF1F920F920FB60F9211242F93E6
:101790003F934F935F936F937F938F939F93AF93F9
:1017A000BF93EF93FF93E091DA05F091DB0530975B
:1017B00009F00995FF91EF91BF91AF919F918F91A2
:1017C0007F916F915F914F913F912F910F900FBE3D
:1017D0000F901F9018951F920F920FB60F92112421
:1017E0002F933F934F935F936F937F938F939F9329
:1017F000AF93BF93EF93FF93E091D805F091D90594
:10180000309709F00995FF91EF91BF91AF919F91AA
:101810008F917F916F915F914F913F912F910F9099
:101820000FBE0F901F9018951F920F920FB60F9238
:1018300011242F933F934F935F936F937F938F93D5
:101840009F93AF93BF93EF93FF93E091D605F091F1
:10185000D705309709F00995FF91EF91BF91AF91AE
:101860009F918F917F916F915F914F913F912F91B8
:101870000F900FBE0F901F901895E3E3F5E01382D1
:10188000128288EE93E0A0E0B0E084839583A68383
:10189000B7838BED91E09183808385EC90E0958711
:1018A000848784EC90E09787868780EC90E0918B2A
:1018B000808B81EC90E0938B828B82EC90E0958B17
:1018C000848B86EC90E0978B868B118E128E138E14
:1018D000148E86E0E0EDF5E0DF01982F1D929A95D9
:1018E000E9F7E6EDF5E0DF011D928A95E9F7089545
:1018F000CF93DF931F92CDB7DEB7789484B5826023
:1019000084BD84B5816084BD85B5826085BD85B5A3
:10191000816085BD80916E00816080936E00109221
:10192000810080918100826080938100809181009C
:10193000816080938100809180008160809380002D
:101940008091B10084608093B1008091B00081608B
:101950008093B00080917A00846080937A008091B7
:101960007A00826080937A0080917A00816080930F
:101970007A0080917A00806880937A001092C1008A
:10198000E0914305F091440582E08083E0913F05BA
:10199000F09140051082E0914105F09142058FECF5
:1019A000808310924B05E0914705F091480586E051
:1019B0008083E0914505F0914605808180618083B8
:1019C000E0914505F0914605808188608083E09133
:1019D0004505F0914605808180688083E09145054A
:1019E000F091460580818F7D808380911A05811159
:1019F0000BC030E020E042E069E082E195E00E9427
:101A0000080881E080931A0580910A0581110BC0B6
:101A10002FE530E041E064E082E095E00E940808B4
:101A200081E080930A058091E40481110BC02FE5C9
:101A300030E041E067E08CED94E00E94080881E02E
:101A40008093E4048091CC0481110DC02DE630E038
:101A50004CE251E060E070E083EC94E00E94750994
:101A600081E08093CC048091B60481110DC02BE7F6
:101A700030E044E650E060E070E08DEA94E00E94DF
:101A8000750981E08093B60480919C0481110DC09A
:101A900029E830E040E65AEE60E070E084EA94E045
:101AA0000E94750981E080939C04809169048111F2
:101AB00025C081E491E0909367048093660491E0EF
:101AC000909368048091C10088608093C1008091E8
:101AD000C10080618093C1008091C20082608093C8
:101AE000C2008091C20084608093C20027E630E08B
:101AF0003093C5002093C4009093690480917604CC
:101B0000811120C085E591E0909372048093710467
:101B1000109274041092730410927504F8948091DA
:101B2000600088618093600086E080936000789414
:101B3000789480E094E0909374048093730481E03F
:101B4000809376048091810481110BC089E691E035
:101B500090937F0480937E041092800481E08093B0
:101B6000810480918C04811110C08FE791E09093E3
:101B70008A048093890411E010938B0460E089E863
:101B800094E00E94190910938C04809194048111AF
:101B900024C08BE991E09093BF048093BE0489E850
:101BA00094E09093C1048093C00482E08093C204C7
:101BB0008EEB94E00E942F06882361F08091C00490
:101BC0009091C104DC01ED91FC910488F589E02D30
:101BD00061E0099581E0809394048091D40481119F
:101BE000A0C087EA91E09093ED048093EC0482E139
:101BF00095E09093EF048093EE0482E095E090935B
:101C0000F1048093F0048CED94E09093F3048093BE
:101C1000F20483EC94E09093F5048093F4048DEA4D
:101C200094E09093F7048093F60484EA94E0909310
:101C3000F9048093F80486E694E09093FB04809383
:101C4000FA0481E794E09093FD048093FC048EE70E
:101C500094E09093FF048093FE048EEB94E09093C5
:101C60000105809300058CEE94E00E946D038823AB
:101C700009F454C08091F0049091F104DC01ED91DD
:101C8000FC910684F785E02D61E009958091F204CE
:101C90009091F304DC01ED91FC910684F785E02D31
:101CA00061E009958091F8049091F904DC01ED91CF
:101CB000FC910684F785E02D09958091FA049091B6
:101CC000FB04DC01ED91FC910284F385E02D61E0E1
:101CD00009958091FE049091FF04DC01ED91FC9147
:101CE0000284F385E02D61E009958CEE94E00E947A
:101CF000AD01882399F08091F6049091F704DC01FE
:101D0000ED91FC910684F785E02D099569EE71E06F
:101D10008091FA049091FB040E94A40181E08093D9
:101D2000D4048CEE94E0909323058093220500E088
:101D300010E08091220590912305009759F01982B7
:101D4000DC01ED91FC910680F781E02DBE016F5F13
:101D50007F4F09950115110561F30E940101882348
:101D600041F30E940000E5CF002E083090F0982F3C
:101D7000872F762F652F542F432F322F222708507D
:101D8000F4CF220F331F441F551F661F771F881F74
:101D9000991F0A95B2F7002D089597FD1094002E13
:101DA000083098F00850232F342F452F562F672FD7
:101DB000782F892F912DF4CF159497958795779546
:101DC000679557954795379527950A95AAF7112452
:101DD000002D08950024A7FD00942A173005400522
:101DE000500560057005800590050895EE0FFF1FF2
:101DF0000590F491E02D09945058BB27AA270E9422
:101E0000140F0C9465100E94571038F00E945E1059
:101E100020F039F49F3F19F426F40C9454100EF47A
:101E2000E095E7FB0C944E10E92F0E94761058F3D2
:101E3000BA17620773078407950720F079F4A6F5AF
:101E40000C9498100EF4E0950B2EBA2FA02D0B01D8
:101E5000B90190010C01CA01A0011124FF27591BEF
:101E600099F0593F50F4503E68F11A16F040A22FF5
:101E7000232F342F4427585FF3CF46953795279566
:101E8000A795F0405395C9F77EF41F16BA0B620B65
:101E9000730B840BBAF09150A1F0FF0FBB1F661FAC
:101EA000771F881FC2F70EC0BA0F621F731F841FEF
:101EB00048F4879577956795B795F7959E3F08F015
:101EC000B0CF9395880F08F09927EE0F97958795D7
:101ED00008950E947D0F0C9465100E945E1058F0CA
:101EE0000E94571040F029F45F3F29F00C944E10E7
:101EF00051110C9499100C9454100E94761068F3B0
:101F00009923B1F3552391F3951B550BBB27AA27B2
:101F100062177307840738F09F5F5F4F220F331FEC
:101F2000441FAA1FA9F335D00E2E3AF0E0E832D0B4
:101F300091505040E695001CCAF72BD0FE2F29D0B7
:101F4000660F771F881FBB1F261737074807AB0789
:101F5000B0E809F0BB0B802DBF01FF2793585F4FFE
:101F60003AF09E3F510578F00C944E100C94991065
:101F70005F3FE4F3983ED4F3869577956795B795E0
:101F8000F7959F5FC9F7880F911D9695879597F9EB
:101F90000895E1E0660F771F881FBB1F6217730764
:101FA0008407BA0720F0621B730B840BBA0BEE1F79
:101FB00088F7E09508950E94E20F6894B1110C949F
:101FC000991008950E947E1088F09F5798F0B92FBD
:101FD0009927B751B0F0E1F0660F771F881F991F5E
:101FE0001AF0BA95C9F714C0B13091F00E94981058
:101FF000B1E008950C949810672F782F8827B85F68
:1020000039F0B93FCCF3869577956795B395D9F7B5
:102010003EF490958095709561957F4F8F4F9F4FBF
:102020000895E89409C097FB3EF4909580957095CB
:1020300061957F4F8F4F9F4F9923A9F0F92F96E914
:10204000BB279395F695879577956795B795F11189
:10205000F8CFFAF4BB0F11F460FF1BC06F5F7F4F26
:102060008F4F9F4F16C0882311F096E911C0772338
:1020700021F09EE8872F762F05C0662371F096E841
:10208000862F70E060E02AF09A95660F771F881F10
:10209000DAF7880F9695879597F9089597F99F67CE
:1020A00080E870E060E008959FEF80EC08950024E0
:1020B0000A941616170618060906089500240A94AD
:1020C00012161306140605060895092E0394000C33
:1020D00011F4882352F0BB0F40F4BF2B11F460FFC2
:1020E00004C06F5F7F4F8F4F9F4F089557FD9058EB
:1020F000440F551F59F05F3F71F04795880F97FBCC
:10210000991F61F09F3F79F0879508951216130685
:102110001406551FF2CF4695F1DF08C016161706B4
:102120001806991FF1CF86957105610508940895E9
:10213000E894BB2766277727CB0197F908950E947B
:10214000111108F48FEF08950E94B7100C946510D8
:102150000E94571038F00E945E1020F0952311F075
:102160000C944E100C94541011240C9499100E944D
:10217000761070F3959FC1F3950F50E0551F629F45
:10218000F001729FBB27F00DB11D639FAA27F00DD0
:10219000B11DAA1F649F6627B00DA11D661F829FF7
:1021A0002227B00DA11D621F739FB00DA11D621FDC
:1021B000839FA00D611D221F749F3327A00D611DF9
:1021C000231F849F600D211D822F762F6A2F1124DB
:1021D0009F5750409AF0F1F088234AF0EE0FFF1F0E
:1021E000BB1F661F771F881F91505040A9F79E3F65
:1021F000510580F00C944E100C9499105F3FE4F35D
:10220000983ED4F3869577956795B795F795E795BA
:102210009F5FC1F7FE2B880F911D9695879597F9C3
:102220000895990F0008550FAA0BE0E8FEEF161667
:102230001706E807F907C0F012161306E407F507BA
:1022400098F0621B730B840B950B39F40A2661F02E
:10225000232B242B252B21F408950A2609F4A140D1
:10226000A6958FEF811D811D08950F931F93CF9326
:10227000DF938230910510F482E090E0E091DE057A
:10228000F091DF0530E020E0B0E0A0E0309799F475
:102290002115310509F44AC0281B390B24303105BA
:1022A000D8F58A819B816115710589F1FB019383C2
:1022B0008283FE0111C04081518102811381481740
:1022C0005907E0F04817590799F4109761F01296F2
:1022D0000C93129713961C933296CF01DF91CF91F6
:1022E0001F910F9108950093DE051093DF05F4CF41
:1022F0002115310551F04217530738F0A901DB01D0
:102300009A01BD01DF01F801C1CFEF01F9CF909330
:10231000DF058093DE05CDCFFE01E20FF31F819331
:1023200091932250310939832883D7CF2091DC053E
:102330003091DD05232B41F420911D0130911E01C8
:102340003093DD052093DC0520911B0130911C01A9
:102350002115310541F42DB73EB740911F01509131
:102360002001241B350BE091DC05F091DD05E2171F
:10237000F307A0F42E1B3F0B2817390778F0AC01A8
:102380004E5F5F4F2417350748F04E0F5F1F509385
:10239000DD054093DC05819391939FCFF0E0E0E071
:1023A0009CCFCF93DF930097E9F0FC013297138223
:1023B0001282A091DE05B091DF05ED0130E020E052
:1023C0001097A1F420813181820F931F2091DC05A9
:1023D0003091DD052817390709F061C0F093DD055C
:1023E000E093DC05DF91CF910895EA01CE17DF0776
:1023F000E8F54A815B819E0141155105B1F7E9017C
:10240000FB83EA8349915991C40FD51FEC17FD074F
:1024100061F4808191810296840F951FE90199836F
:102420008883828193819B838A83F0E0E0E0129627
:102430008D919C9113970097B9F52D913C9111972F
:10244000CD010296820F931F2091DC053091DD05AE
:102450002817390739F6309751F51092DF05109299
:10246000DE05B093DD05A093DC05BCCFD383C2832A
:1024700040815181840F951FC817D90761F44E5FC1
:102480005F4F88819981480F591F518340838A810A
:102490009B81938382832115310509F0B0CFF0939E
:1024A000DF05E093DE059ECFFD01DC01C0CF138286
:1024B0001282D7CFAEE0B0E0E0E6F2E10C94161560
:1024C0000D891E898F89988D26E02C831A830983B4
:1024D00097FF02C080E090E801979E838D83AE0154
:1024E000455E5F4F698D7A8DCE0101960E948A12FA
:1024F0004D815E8157FD0AC02F81388542175307F1
:102500000CF49A01020F131FF80110822E96E4E0DA
:102510000C943215ABE0B0E0E0E9F2E10C94081560
:102520007C013B018A01FC0117821682838181FFB5
:10253000C8C1CE0101965C01F7019381F30193FDBF
:10254000859193FF81913F01882309F453C185321E
:1025500039F493FD859193FF81913F01853229F4F0
:10256000B70190E00E947A14E7CF912C212C312CF6
:10257000FFE1F31538F08B3211F190F4803209F15C
:10258000833229F137FC3CC020ED280F2A3050F56A
:1025900036FE20C08AE0989E200D1124922E06C09F
:1025A0008D3291F0803371F7689430F8F30193FD28
:1025B000859193FF81913F018111DACF21C0689409
:1025C00031F8689432F8F2CF689433F8EFCF68941A
:1025D00034F8ECCFEAE02E9E200D1124222E6894D0
:1025E00035F8E4CF8E3229F436FC04C1689436F80D
:1025F000DDCF8C3619F4689437F8D8CF8836B1F22D
:10260000982F9F7D95549330E0F08336A1F1833766
:10261000C1F1833509F063C02801F2E04F0E511C6F
:10262000F801C080D180692D70E036FC02C06FEFE8
:102630007FEFC6010E9464144C01689437F8820150
:102640000AC00C5F1F4FFFE3F98388248394912C09
:102650006501E89437F833FE2DC0522C81149104A3
:1026600071F5552009F468CFB70180E290E00E942F
:102670007A145A94F6CFF801808189830E5F1F4F38
:10268000E4CF2801F2E04F0E511CF801C080D18048
:10269000692D70E036FC02C06FEF7FEFC6010E942B
:1026A0006F144C018201D5CFB70180E290E00E9407
:1026B0007A142A942814190409F0B0F7CECFF60141
:1026C00037FC859137FE81916F01B70190E00E9440
:1026D0007A1451105A94F1E08F1A9108BFCF8436C2
:1026E00019F0893609F077C0F80137FE6BC06081B8
:1026F0007181828193810C5F1F4FF32DFF763F2EF6
:1027000097FF09C090958095709561957F4F8F4F89
:102710009F4F689437F82AE030E0A5010E94AA1480
:10272000C82ECA188C2C432C36FE0CC0E89440F8F6
:10273000C91440F434FE05C032FC03C0F32DFE7E04
:102740004F2E892C44FE95C0FE01EC0DF11D8081B9
:10275000803309F087C0242D297E422E842D887075
:10276000582E43FC95C040FE8FC09C2C821418F458
:102770002C0C922C981844FE91C0B70180E390E095
:102780000E947A1442FE09C088E790E041FE02C030
:1027900088E590E0B7010E947A14C91408F48AC051
:1027A000CA94D12C9FEFC91AD90ACA0CDB1CF601B6
:1027B00082916F01B70190E00E947A14AC14BD04BD
:1027C000B1F74FCF60817181072E000C880B990BF8
:1027D0000E5F1F4F92CFD32CE894D4F82AE030E05C
:1027E000853739F1232D297FD22E8F3601F148F418
:1027F0008835A9F0F701868197812B96E2E10C9448
:102800002415803749F08837A9F7D4FE02C06894B0
:10281000D2F820E130E00DC06894D4F8F6CF34FE51
:1028200003C0822F8660D82E20E132E002C028E06B
:1028300030E0F801D7FE0FC0608171818281938101
:102840000C5F1F4FA5010E94AA14C82ECA183D2C68
:10285000E89437F867CF6081718190E080E00E5F87
:102860001F4FF0CF42FC02C0839478CF83948394AF
:1028700075CF842D867809F471CFF6CFB70180E249
:1028800090E00E947A1483948214C0F3512C73CF89
:10289000522C5818821408F46ECFF8CF842D867805
:1028A00009F47BCF8BE241FE80E247FC8DE2B70169
:1028B00090E071CFB70180E390E00E947A149A947F
:1028C0006CCF8FEF9FEF99CFFC0105906150704066
:1028D0000110D8F7809590958E0F9F1F0895FC01E9
:1028E0006150704001900110D8F7809590958E0F3F
:1028F0009F1F08950F931F93CF93DF93182F092FD6
:10290000EB018B8181FD09C01FEF0FEF812F902F0D
:10291000DF91CF911F910F91089582FF14C02E81F6
:102920003F818C819D81281739073CF4E881F9812A
:10293000CF0101969983888310838E819F810196B0
:102940009F838E83E3CFE885F985812F0995892BB5
:10295000A1F3DACFFA01AA27283051F1203181F111
:10296000E8946F936E7F6E5F7F4F8F4F9F4FAF4F97
:10297000B1E03ED0B4E03CD0670F781F891F9A1FAA
:10298000A11D680F791F8A1F911DA11D6A0F711D5E
:10299000811D911DA11D20D009F468943F912AE06A
:1029A000269F11243019305D3193DEF6CF01089552
:1029B000462F4770405D4193B3E00FD0C9F7F6CF83
:1029C000462F4F70405D4A3318F0495D31FD40524B
:1029D000419302D0A9F7EACFB4E0A69597958795E1
:1029E00077956795BA95C9F70097610571050895C0
:1029F0009B01AC010A2E069457954795379527956C
:102A0000BA95C9F7620F731F841F951FA01D089503
:102A10002F923F924F925F926F927F928F929F92EE
:102A2000AF92BF92CF92DF92EF92FF920F931F93DC
:102A3000CF93DF93CDB7DEB7CA1BDB0B0FB6F8948D
:102A4000DEBF0FBECDBF09942A88398848885F84CD
:102A50006E847D848C849B84AA84B984C884DF803E
:102A6000EE80FD800C811B81AA81B981CE0FD11D22
:102A70000FB6F894DEBF0FBECDBFED010895F894F8
:022A8000FFCF86
:102A82002A002B0029006D00022700280026006C76
:102A920000012400250023006B00000000E00580F7
:102AA20000120109010001000000008C07060883E2
:102AB20007800764073B071707AD06F5060000000D
:102AC2000091069006A8064B05A506A206AC0A923E
:102AD2000600000000AB04AA044B054805270523A5
:102AE20005B304AC04000000009106F0080B094B8A
:102AF20005A506A2060209F808F1080000000091E7
:102B0200060E09730970096B091909540962094B08
:102B120005A506A2060F09000000002E062D062FAD
:102B2200064D06000000003F04A8046D031C037755
:102B320002470220020602D901AD015D0A0000002F
:102B420000200A5B0A240621060706D905960559C4
:102B5200054D058F0585050000000037019700C46B
:102B6200008401F500D300E700546F67676C6520AD
:102B720074696D657220656E61626C6564210A001C
:102B8200546F67676C652074696D65722064697340
:102B920061626C6564210A004661696C6564207437
:102BA2006F2072756E207468652073797374656D19
:102BB2003A20696E697469616C697A6174696F6ED1
:102BC200206661696C6564210A0052756E6E696ED9
:102BD20067207468652073797374656D210A004CEF
:102BE2006F6769633A20436865636B696E67206942
:102BF2006E697469616C697A6174696F6E2E2E2ECA
:102C02000A004C6F6769633A204C4544206E6F742A
:102C120020696E697469616C697A6564210A004C85
:102C22006F6769633A20546F67676C6542757474A5
:102C32006F6E206E6F7420696E697469616C697A57
:102C42006564210A004C6F6769633A2054656D70B0
:102C5200427574746F6E206E6F7420696E69746948
:102C6200616C697A6564210A004C6F6769633A2076
:102C72004465626F756E636554696D6572206E6F2F
:102C82007420696E697469616C697A6564210A00ED
:102C92004C6F6769633A20546F67676C6554696D5E
:102CA2006572206E6F7420696E697469616C697AED
:102CB2006564210A004C6F6769633A2054656D7040
:102CC20054696D6572206E6F7420696E69746961F2
:102CD2006C697A6564210A004C6F6769633A205314
:102CE200657269616C206E6F7420696E69746961C6
:102CF2006C697A6564210A004C6F6769633A2057F0
:102D020061746368646F67206E6F7420696E6974A2
:102D120069616C697A6564210A004C6F6769633A7C
:102D220020454550524F4D206E6F7420696E697474
:102D320069616C697A6564210A004C6F6769633A5C
:102D42002054656D7053656E736F72206E6F7420C0
:102D5200696E697469616C697A6564210A004C6FF5
:102D62006769633A20416C6C20636F6D706F6E65AA
:102D72006E747320696E697469616C697A65642026
:102D82007375636365737366756C6C79210A004CA5
:102D92006F6769633A20496E697469616C697A6127
:102DA20074696F6E204641494C454420666F72201B
:102DB2006F6E65206F72206D6F726520636F6D702C
:102DC2006F6E656E74732E0A0054656D7065726164
:102DD200747572653A2025642043656C7369757356
:022DE2000A00E5
:00000001FF
